:020000040800F2
:1000000060460020611D0008A11D0008A31D000816
:10001000A51D0008A71D0008A91D0008000000007C
:10002000000000000000000000000000AB1D000800
:10003000AD1D00080000000049010008DF45000870
:10004000B31D0008B31D0008B31D0008B31D000850
:10005000B31D0008B31D0008B31D0008B31D000840
:10006000B31D0008B31D0008B31D0008B31D000830
:10007000B31D0008B31D0008B31D0008B31D000820
:10008000B31D0008112D0008B31D0008B31D0008A2
:10009000BD200008B31D0008B31D0008B31D0008F3
:1000A000B31D0008B31D0008B31D0008A1280008F7
:1000B000B31D0008B31D00084B210008B31D000844
:1000C000B31D0008B31D0008B31D0008B31D0008D0
:1000D000B31D0008DD2C0008B31D0008392D0008F1
:1000E000B31D0008B31D0008B31D0008DFF80CD0D5
:1000F00004F0D2FE004800475B0C00086046002078
:1001000002B472B601780131017062B6013908009B
:1001100002BC704702B472B601780139017062B650
:10012000080002BC7047000062B6704772B67047A4
:100130001C3880F30988704702484FF080510160F5
:100140007047000004ED00E00B4B19680B4A126881
:1001500091420AD0EFF3098020E9F00F08601A609D
:100160001068B0E8F00F80F30988054B0020187084
:100170004EF0040E70470000D4010020D001002092
:10018000B5010020FD4FFE4CDFF8F8934FF000085A
:10019000FA2003F05AFD386880F001003860A0684A
:1001A00004F0E5FC0546206804F0E1FC06466068C2
:1001B000E168401A04F0DBFC494604F0C8FA314615
:1001C00004F0C5FA294604F0F8FA20616068C4E931
:1001D0000280DDE7ED49EC4A0B68101F43F08073A5
:1001E0000B60016841F001010160E548E8490160E8
:1001F00000234168491C416000BF00BF00BF00BF31
:100200001168136084680C4484600468A142F0D2D1
:100210000160EEE7FEE72DE9FF4101211D2001F01D
:100220003EFB0121042001F043FB0121084601F0BF
:100230002DFB4FF4A06001F0EBF9D04F4FF6FF75A6
:10024000ADF8005000240C3F8DF803406946384655
:1002500001F02CFD6946CF4801F028FD6946CE48E3
:1002600001F024FD0320ADF8000010208DF80300FC
:1002700002268DF802606946384601F017FDBF4836
:100280000121001D016006604720ADF80400ADF8B3
:100290000850ADF80A40ADF80640C04C01A9204610
:1002A00001F054FB0121204601F032FCBDE8FF8142
:1002B000BA4924310A88104480B2904202D20A8896
:1002C0008242FCD80A888242FCD370472DE9F04F65
:1002D000ADB04F2029900A20B14D2C904FF4CC772F
:1002E0004FF0EA08AB46302101A804F0CCF93021E8
:1002F0000DA804F0C8F9AB4E312026900024706898
:1003000004F02CFCDFF8A0A2514604F020FA81464C
:10031000306804F023FC514604F019FA1C90CC20FC
:1003200027902946484604F048FA4FF07E56314659
:1003300004F00AFA9D4A0146104604F008FA824683
:1003400004F02BFC28909A4D1C9805F0B9FB294627
:1003500004F0FDF9974A0146104604F0A0F904F0B4
:100360001CFC24901C9804F0EBFF294604F0EFF9E4
:100370000146504604F093F904F00FFCB24608EB36
:10038000D8762590142507EBD777701004F0E6FB9C
:1003900000904846594604F010FA514604F0D4F94A
:1003A0000146009804F0D3F91990781004F0D6FBB8
:1003B0001A90404604F0D2FB1D90284604F0CEFB74
:1003C0007D4904F0C4F97D4904F0F7F9594604F079
:1003D000F4F91D9904F0BBF94FF0FF3104F02DFA48
:1003E00080464FF0804105F06BF8754904F057F9ED
:1003F00005F02CFC00907349404604F077FE8246DD
:100400001C9904F09EF981461E9004F099FF009912
:1004100004F09DF901461A9804F041F904F0BDFB7F
:100420000DF1040848F82400484605F049FB0099FE
:1004300004F08DF90146199804F031F904F0ADFB90
:100440000DF1340949F82400641C50461C9904F04D
:1004500026F9824604F074FF009904F078F9014609
:100460001A9804F06EF904F098FB48F824005046FE
:1004700005F026FB009904F06AF90146199804F08A
:100480000EF904F08AFB49F82400641C504604F07D
:1004900057FF009904F05BF901461A9804F0FFF841
:1004A00004F07BFB48F82400504605F009FB009956
:1004B00004F04DF90146199804F043F904F06DFB7E
:1004C00049F82400641C1E9804F03AFF009904F0D7
:1004D0003EF901461A9804F034F904F05EFB48F83E
:1004E00024001E9805F0ECFA009904F030F901465A
:1004F000199804F026F904F050FB49F82400641C14
:1005000014353C2D7FF759AF0024C2464FF0010B44
:100510002C9804F023FB19901C9880F000401F9049
:1005200005F0CEFA0146199804F011F90DAD804698
:1005300055F8240004F012FB414604F0B0F804F032
:100540002CFB80461C9804F0FBFE0146199804F031
:10055000FEF881465AF8240004F000FB494604F0F6
:100560009EF804F01AFB81461F9805F0A9FA01468F
:10057000199804F0ECF8009026E000000C08014007
:10058000000000200000C842041000E0FCED00E084
:10059000FFE0F505000C014000100140000800409C
:1005A000920A863F4009002035FA8E3C0000EA425C
:1005B0000000A04000004C43DA0F494000003443E3
:1005C000008090430000884155F8240004F0C6FAEA
:1005D000009904F0B6F804F0E0FA05461C9804F01F
:1005E000AFFE0146199804F0B2F800905AF82400C2
:1005F00004F0B4FA009904F0A4F804F0CEFA4346EB
:100600004A462946CDF800B001F0ABFE641C0C2C24
:1006100001DA1F9884E76FF00404711004EB67009F
:1006200001230B2201F0F4FE04EB66017810012394
:100630000B2201F0CDFEFF200090711078100123F5
:10064000272201F047FF1F9805F03AFA044629983F
:1006500004F084FA8146214604F079F8044628988B
:1006600004F07CFA0546214604F019F804F095FAE6
:1006700004461C9804F064FE0146484604F067F8FE
:100680000646279804F06AFA8046314604F007F8D7
:1006900004F083FA06461F9805F012FA0146484610
:1006A00004F055F80146284604F04BF804F075FABA
:1006B00007461C9804F044FE0146484604F047F8FB
:1006C0000146404604F03DF804F067FA5D462346D3
:1006D00032463946CDF800B001F043FE1F9805F0D0
:1006E000EFF90446269804F039FA8146214604F0D1
:1006F0002EF80446259804F031FA0746214603F007
:10070000CEFF04F04AFA04461C9804F019FE014694
:10071000484604F01CF80646249804F01FFA804668
:10072000314603F0BCFF04F038FA06461F9805F086
:10073000C7F90146484604F00AF80146384604F075
:1007400000F804F02AFA07461C9804F0F9FD014667
:10075000484603F0FCFF0146404603F0F2FF04F078
:100760001CFA234632463946009501F0FAFD2DB0B9
:10077000BDE8F08F08B5DFF810944FF0FF3B00BFE5
:1007800099F80000002103F03BFC99F8000003F009
:100790008FFCFE48016881F002010160FFF796FDC1
:1007A0000123C8220E21642001F032FE0C21C52055
:1007B00001F0F8FE04217F2001F0F8FE0A25DFF8A1
:1007C000D0A3A8460123DAF89460052296FBF8F13D
:1007D00008FB1167EC1B04F16400092101F0F8FD2E
:1007E000F01B2844643800280CD006DC10F1B40F4C
:1007F0005AD010F15A0F16D15EE05A280AD0B42808
:1008000011D151E004F16100002101F0CBFE05217E
:100810004E2006E004F16100002101F0C3FE052135
:10082000452001F0C3FE0A35BE2DCBDB1921BC20CB
:1008300001F0B8FECDF800B0554600230322042095
:10084000DAF8941001F0F4FE0123A02232214FF4D3
:10085000A87001F0BDFD6E2140F2471001F0A2FE2C
:10086000042140F2191001F0A1FEC2463224A8462C
:100870006420D8F89810012391FBF0F797FBFAF168
:100880000AFB11756619F11E05224FF4A87001F0DC
:10089000BFFD781B001B00F17805142195FBF1F2D8
:1008A00001FB125181B123E004F16100002101F04C
:1008B00079FE05215320B4E704F16100002101F025
:1008C00071FE05215720ACE700F18201B94202DB3D
:1008D0006E30B8420CDDB11F4FF4A97001F062FE1A
:1008E00005200246009000232946042001F0A0FEC6
:1008F0000A34D22CBCDB6E214FF4A97001F052FEF9
:10090000022500954446002305220420D8F89810BB
:1009100001F08EFE4FF4AC760221304601F042FE2B
:1009200005214C2001F042FE05214E2001F03EFE43
:1009300095480327801D0097016800233A4605204B
:1009400001F076FE90484FF00A010A300068002856
:1009500030460CD001F026FE0521502001F026FE85
:100960000521412001F022FE05214C200FE001F07D
:1009700019FE05214E2001F019FE0521542001F039
:1009800015FE0521532001F011FE0521432001F041
:100990000DFE3221032001F005FE0421462001F066
:1009A00005FE0421692001F001FE0421782001F0F8
:1009B000FDFD01200090024614F89C1F0023042036
:1009C00001F036FE4221032001F0ECFD042153200A
:1009D00001F0ECFD0421612001F0E8FD0421742008
:1009E00001F0E4FD0095617800230222042001F06B
:1009F0001FFE0021084601F0D5FD6068A4F19C04AB
:100A0000002801DA532000E04E20052101F0CEFD40
:100A10000726D4F8A0100096002900DA49420123E5
:100A20000922052001F004FE0A21002001F0BAFD90
:100A3000D4F8A400002801DA572000E04520052161
:100A400001F0B4FDD4F8A4100096002900DA494260
:100A500001230922052001F0EBFD1421002001F003
:100A6000A1FDD4F8B400002801DA532000E04E20A4
:100A7000052101F09BFDD4F8B4100096002900DA9E
:100A8000494201230922052001F0D2FD1E21002048
:100A900001F088FDD4F8B800002801DA572000E002
:100AA0004520052101F082FDD4F8B81000960029F8
:100AB00000DA494201230922052001F0B9FD522143
:100AC000032001F06FFD0421412001F06FFD04219E
:100AD0006C2001F06BFD0421472001F067FD052625
:100AE00004F190040096B4F918104FF00003324658
:100AF0004FF0040001F09CFD6221032001F052FD43
:100B00000421532001F052FD0421702001F04EFD1C
:100B10000421472001F04AFD0096B4F91A10002381
:100B20000522042001F084FD7221032001F03AFD2A
:100B30000421752001F03AFD00970323217F1A4616
:100B4000042001F075FD00970323217F1A4605203C
:100B500001F06EFD8221032001F024FD04214C20D0
:100B600001F024FD04214F2001F020FD0421532039
:100B700001F01CFD0096E18B00230522042001F00A
:100B800057FD9221032005E00E3B00200C08014098
:100B9000B408002001F006FD0421482001F006FD04
:100BA00004214F2001F002FD0421442001F0FEFC4D
:100BB0000096218C00230522042001F039FDC92173
:100BC000032001F0EFFC0023052240F2EC41042059
:100BD000009501F02DFD0421562001F0E7FC009561
:100BE00040F2D245002305222946042001F020FDD1
:100BF0000421412001F0DAFCD921032001F0D2FCCC
:100C00000023052229460420009601F011FD04214D
:100C10004D2001F0CBFC0421612001F0C7FC042130
:100C2000682001F0C3FCB921322001F0BBFCCDF8F3
:100C300000B05D46002303220120216801F0F8FC8A
:100C4000B921502001F0AEFC009554F8041C00239B
:100C50000322012001F0ECFC92E510B5FFF7DBFA6E
:100C600003F017F902F0E1F802F006F902F046FE8F
:100C700001F01CFD01F0CFFA00F044FC00F062F935
:100C8000094B43F21E020021AFF6073003F054FB7C
:100C9000064B074A0021AFF2235003F04DFB03F04F
:100CA00020F9002010BD0000B0020020B006002096
:100CB0000A000100A74AA2F183001178085C491CD0
:100CC0001170704700B5FFF7F5FF0346FFF7F2FF1D
:100CD00003EB002080B200BD10B5FFF7F3FF044620
:100CE000FFF7F0FF04EB004010BD2DE9F0470026B0
:100CF000984DDFF864928246884617463446883D10
:100D000019F80410286801F0D1FF641C032CF7DBEC
:100D10003946286801F0CAFF86EA07045146286868
:100D200001F0C4FF84EA0A04002608E018F806105F
:100D3000286801F0BBFF18F806004440761CBE424C
:100D4000F4DB21462868BDE8F04701F0AFBF30B5BD
:100D5000804C0020883C84F88800207194F885003D
:100D60006C2810D004DC6A2820D06B2804D135E030
:100D70006D2803D076283DD0002352E0FFF7ACFF6A
:100D8000C4F8980030BDFFF79DFF00B20A2590FB24
:100D9000F5F044F88C0FFFF795FF00B290FBF5F0EB
:100DA0006060FFF78FFF00B2A06030BDFFF782FFE9
:100DB00004F89C0FFFF77EFF6070FFF78DFF606007
:100DC000FFF78AFFA060FFF77DFFA081FFF77AFFA2
:100DD000E081207C80F00200207430BDFFF772FFBC
:100DE00004F1AC046080FFF76DFFA080207880F0F4
:100DF000010010E0FFF75EFFFFF76EFF04F1AC04A7
:100E0000A060FFF769FFE060FFF75CFFFFF752FFAC
:100E1000207880F00400207030BD00BFFFF74AFF4B
:100E20005B1C94F886009842F8DC30BD70B5494CE4
:100E3000883C206801F016FF002848D0206801F0A7
:100E40001EFF46490A785AB1012A0FD0022A11D052
:100E50000023032A13D0042A19D0052A1CD035E018
:100E6000242801D1012008E0002006E04D28FBD114
:100E7000022002E03E28F7D10320087026E08028F7
:100E800001D90B7022E084F886000420F5E70522E2
:100E90000A7084F8850019E004F186042D4A65780B
:100EA000A2F18302A854607800F10100C0B2607022
:100EB00014F88629904205D384F8873001202071E8
:100EC0000B7001E0207908B1FFF741FF012070BDF0
:100ED00008B54FF4E131224801F01DFE1D4D1F4CB5
:100EE000883D00262860082002F0AFFE00228DF821
:100EF000006011466C20FFF7F8FE002211466D20BD
:100F0000FFF7F3FE606890F00100606008D00022F7
:100F100011466A20FFF7E9FE002211466B2002E02D
:100F2000012269467620FFF7E0FE022002F08DFEE6
:100F300002E000BFFFF77AFF286801F093FE002867
:100F4000D1D0F7E7034B48F20F028C3B0021054854
:100F500003F0F2B93C090020CA87000844000020D1
:100F600000440040D10E00082DE9F05F044600E087
:100F7000641C2278202AFBD0092AF9D0DFF870A45B
:100F8000D0B24FF000092D2802D02B2A04D004E063
:100F9000DFF860A44FF00009641C00263746DFF834
:100FA00058B410E003F0E8FD0546884600225B4691
:100FB0003046394603F0F3FC43462A4603F049FC29
:100FC00006460F46641C207830380928EAD9207874
:100FD0002E281CD10025DFF8208413E003F0CCFD7F
:100FE0002A46434603F04BFD32463B4603F031FCB4
:100FF00006460F4600225B462846414603F0CFFCDA
:101000000546884614F8010F30380928E6D92278B9
:101010000020F749652A01D0452A42D114F8012F52
:101020004FF000082D2A02D02B2A02D002E04FF008
:101030000108641C00256FF02F0C05E005EB85030B
:101040000CEB4303D518641C2278A2F13003092B62
:10105000F4D94FF49A72954205D91546E74AE84B00
:1010600003F09DFC323D322DF8D2E64C082D0BD317
:101070000022234603F093FC083DF7E700222346B5
:1010800003F08DFC6D1E00E05C46002DF6D1B8F13A
:10109000000F06D002460B463046394603F0EFFCFF
:1010A00003E032463B4603F07AFC4A46534603F0DF
:1010B00076FCBDE8F05F03F089BD2DE9F041002525
:1010C00080462E462F46044603F0C0FA016800E031
:1010D000641C2078085C2028FAD0404609E01DB145
:1010E00005EB85025206150E10F8012B303D2A44FF
:1010F000D5B2221A022AF2DC09E01EB106EB860202
:101100005206160E10F8012B303E3244D6B28442FD
:10111000F3D820782E280ED1641C002007EB87021C
:10112000570022788B5C202B02D1303F1744641C7F
:10113000401C0428F2DBB4480621464307EBC700F5
:1011400000EB071006EB8000B0FBF1F0AF494D4318
:1011500000EBC510BDE8F0812DE9F0470027AC4D4C
:10116000AC4C0646B8464FF00109242815D021465C
:10117000A5F5047049782C2E15D02A2E13D02246BE
:101180000D2ED2787DD00A2E7BD00F2902D2465464
:10119000491C6170002A75D08DE084F800804046BB
:1011A00084F8018086E000F80180217829B1227955
:1011B000012A22D0022A6BD073E084F804800178DF
:1011C00047296ED1417850296BD18178472902D0C7
:1011D000522909D065E0C178472962D100794128B8
:1011E0005FD184F804905CE0C1784D2959D1007931
:1011F000432856D10220207153E002290CD0032944
:101200000ED0042913D0052915D006291AD0072994
:1012100020D0092937D044E07F48FFF74EFF04E093
:10122000007853283DD1E8684042E86039E07A48C8
:10123000FFF743FF04E00078572832D12869404285
:1012400028612EE00078302801D9012000E000203C
:10125000286226E00020DFF8C0C102460BE02E29FC
:101260000DD000EB80004000A1F13003092B01D824
:1012700030380844521C1CF802100029EFD1686273
:101280000FE025E014E06448FFF76EFE686108E0B7
:10129000072906D16048FFF767FE604903F057FA57
:1012A000E8612078401C207084F801802A2E0CD040
:1012B000A0787040A070207908B1C5F808900FB1EF
:1012C000012800D00020BDE8F08784F80390F2E701
:1012D00072B18246007800F01EF906019AF801000A
:1012E00000F019F93044A178C0B2884200D101273A
:1012F00084F80380DFE72DE9F041464C444D444E2D
:10130000207A2C3500274FF00108022807D0032847
:1013100016D0062822D0122831D000201AE768689B
:101320003061A868F06028694FF47A7190FBF1F0A1
:1013300003F014FC7061607A306284F80B802DE059
:101340006879C00702D02879032803D00020607292
:1013500010B123E00120FAE737621FE0E87AC00706
:1013600002D0A87A032803D00020607210B102E0F6
:101370000120FAE7376295F82F0070620EE0686985
:1013800003F0F5FBF061A86942F2107190FBF1F0F7
:1013900080B203F0ECFBB06184F80C80E07A217B32
:1013A0000840BBD0E77227730120D3E62DE9F04750
:1013B00018494FF000090A46CE79557993792C18CF
:1013C000B2F80EC04FF00108E4B24A46092E70D2BE
:1013D000DFE806F00805292F363D4D5D63006228E1
:1013E00003D0CA71B5281BD063E002204DE0000095
:1013F0000000F03F0000F0BF000024409A647EC56A
:101400000E1B514A84D7974140420F002D310100F5
:10141000800B00204C000020700900201BC74D42AB
:1014200081F8078045E00322CA718872487188718B
:101430003FE00422CA714C71E2188A71087238E0E8
:101440000522CA714C71E2188A71C88131E0062503
:10145000CD710CEB00204C71234480B28B71C8819C
:10146000B0F5007F01D9CA81CA710A8221E04C71AE
:10147000E2188A710A8A402A01D22B4B9854521CD6
:1014800090B20882604514D10720C87111E008238A
:10149000CB7185420DD0CA710BE0CA71834208D16D
:1014A00021482C38C0F80880FFF725FF08B14FF01D
:1014B0000109484607E74FF416511C4801F02BFB81
:1014C000194C2C3C206000206060192002F0BDFB0C
:1014D00012E0606810B101280ED105E0206801F02B
:1014E000CEFBFFF739FE04E0206801F0C8FBFFF7F0
:1014F0005DFFA16A0844A062206801F0B3FB0028E8
:10150000E3D0E6E7084B48F21402303B0021AFF28B
:10151000590002F011BF3038C0B2092801D9C01FEC
:10152000C0B200F00F007047AC0B00200038014043
:10153000324810B5016841F0010101604168304A4C
:101540001140416001682F4A11400160016821F497
:1015500080210160416821F4FE0141604FF41F01C8
:10156000816000F005F828494FF00060086010BD68
:1015700022480021026842F4803202604FF4A063E6
:10158000026801F1010112F4003F01D19942F7D143
:101590000168890330D51D490A6842F010020A60CB
:1015A0000A6822F003020A600A6842F002020A6036
:1015B0004168416041684160416841F48061416037
:1015C000416821F47C114160416841F4E8114160B7
:1015D000016841F08071016001688901FCD54168B2
:1015E00021F003014160416841F00201416041681E
:1015F000C1F381010229FAD17047000000100240B6
:101600000000FFF8FFFFF6FE08ED00E000200240BA
:101610001849084318490860704770B50F21C4780D
:10162000027801234FF0E026DCB1134C246804F467
:10163000E064C4F5E064250AC5F10404E940457896
:10164000A54084780C402C4321010C4C11550078A6
:1016500000F01F018B40400906EB8000C0F800310C
:1016600070BD02F01F008340500906EB8000C0F8F7
:10167000803170BD0000FA050CED00E000E400E0F0
:1016800001684FF6FE721140016000210160416067
:101690008160C1605749574A0839904203D1486870
:1016A00040F00F0006E0534A1432904204D14868DB
:1016B00040F0F000486070474E4A2832904203D113
:1016C000486840F47060F5E74A4A3C32904203D1E2
:1016D000486840F47040EDE7464A5032904203D1EA
:1016E000486840F47020E5E7424A6432904203D1F2
:1016F000486840F47000DDE73E4A7832904203D1FA
:10170000486840F07060D5E73B4A111F904203D112
:10171000086840F00F0006E0374A1432904204D1C6
:10172000086840F0F00008607047334A2832904261
:1017300003D1086840F47060F5E72F4A3C329042CC
:1017400003D1086840F47040EDE72B4A50329042D4
:10175000EAD1086840F47020E5E730B5036847F641
:10176000F07293430C6A8A682243D1E904452C4302
:1017700022438C692243CC6922434C6A22438C6AFF
:1017800022431A430260CA6842600A68826049685C
:10179000C16030BD0021016041608160C1600161B4
:1017A00041618161C16101624162816270470029CA
:1017B000016802D041F0010102E04FF6FE721140D3
:1017C00001607047002A026801D00A4300E08A43A2
:1017D0000260704741607047406880B27047C10046
:1017E00003D50549091F0860704702490839486058
:1017F00070470000080002400804024031490860B8
:101800007047314910B54A6812F00C032F4A03D0D3
:10181000042B01D0082B26D002604A682C4B02F022
:10182000F00212099C5C0268E24042604C6804F4D9
:10183000E064240A1C5D22FA04F484604C6804F419
:1018400060544FEAD4241B5D22FA03F2C260496857
:101850001F4B01F440414FEA91311B1F595CB2FB11
:10186000F1F1016110BD4A684B6802F470124FF04B
:10187000020413F4803F04EB924202D04B689B03B6
:1018800001D5144B00E0114B5A43C5E70E4A00291D
:10189000516901D0014300E08143516170470A4A18
:1018A0000029916901D0014300E0814391617047B3
:1018B000054A0029D16901D0014300E08143D1618B
:1018C00070470000D80042420010024000127A0027
:1018D0006200002000093D0030B502884C8802F407
:1018E00041530A88CD8822438C882C4322430C899B
:1018F00022434C8922438C892243CC8922431A43B8
:101900000280828B22F400628283098A018230BDC8
:101910000021018041808180C180018141818181DC
:10192000C1810721018270470029018802D041F05E
:10193000400101E021F0400101807047002A8288C7
:1019400001D00A4300E08A438280704730B50288A4
:101950008A4B8B4C98420DD0A0420BD0B0F1804FF7
:1019600008D0884DA84205D0874DA84202D0874DA7
:10197000A84203D122F070054A882A43844DA84228
:1019800006D0844DA84203D022F44075CA882A4369
:1019900002808A8882850A88028598420AD0A042FD
:1019A00008D07D4A904205D07C4A904202D07C4AC1
:1019B000904201D1097A01860121818230BD028BDA
:1019C00022F440620283028B42EA012202837047C2
:1019D00070B5048C24F010040484068B048C26F467
:1019E00073461B0746EA1343120643EA12420D05EB
:1019F000624B2D0C98420ED0614B98420BD0B0F147
:101A0000804F08D05F4B984205D05F4B984202D080
:101A10005E4B984205D124F02001294341F010018A
:101A200004E024F0A0030B4343F01001028301847F
:101A300070BD028B22F00C020283028B0A430283E8
:101A4000704730B5048C24F001040484058B048CA9
:101A50001B0542EA134325F0F305484A2B43904205
:101A60000ED0474A90420BD0B0F1804F08D0454A83
:101A7000904205D0444A904202D0444A904202D15A
:101A800024F0020201E024F00A020A4342F00101BC
:101A90000383018430BD2DE9F0410C4600254988BF
:101AA0000746012601B90225A288012A00D1022693
:101AB000208823890028384610D0FFF789FFE18865
:101AC0003846FFF77CFF2389324629463846FFF720
:101AD000B8FFE1883846BDE8F041AAE7FFF7B1FF5B
:101AE000E1883846FFF7A5FF238932462946384664
:101AF000FFF76EFFE1883846BDE8F0415FE74FF63B
:101B0000FF71818000210180C18041800172704796
:101B10000029018802D041F0010101E021F001011A
:101B200001807047002A828901D00A4300E08A437D
:101B300082817047028922F070020A430281704755
:101B400010B5048942EA0323E4B20B432343038123
:101B500010BD028922F00702028102890A43028134
:101B60007047028922F08002028102890A430281C1
:101B7000704781867047C94301827047002C01403D
:101B8000003401400004004000080040000C004008
:101B9000001000400014004000400140004401409B
:101BA0000048014030B50446008A85B00D464CF629
:101BB000FF710840E98801432182A1894EF6F310A4
:101BC0000140A8882A8910436A890A431043A081EA
:101BD000A08A4FF6FF410840A9890143A1826846C7
:101BE000FFF70FFE3048844201D1039800E00298CD
:101BF000A1890904002900EBC00101EB001029684C
:101C000002DA4FEA410101E04FEA8101B0FBF1F055
:101C10006422B0FBF2F14FEA01114FEA11136FF0A9
:101C200018056B4300EB8300A3891D044FF03203BA
:101C300006D503EBC000B0FBF2F000F0070005E0B2
:101C400003EB0010B0FBF2F000F00F00084320811E
:101C500005B030BD0029818902D041F4005101E076
:101C600021F400518181704710B5C1F3421301F096
:101C70001F040121A140012B07D0022B07D01430F3
:101C8000002A026805D00A4304E00C30F8E710305F
:101C9000F6E78A43026010BD002A828A01D00A4317
:101CA00000E08A4382827047003801402DE9F0410C
:101CB000CB78002503F00F02DB0601D58B781A43A1
:101CC0000B884FF00F0813F0FF0F4FF0010C1CD0E2
:101CD000D0F800400E880CFA05F31E409E4210D149
:101CE000AF0008FA07F624EA060602FA07F43443BE
:101CF000CE78282E02D0482E02D002E0436100E0C8
:101D000003616D1C082DE5D304600B88FF2B1DD9E2
:101D10004468002505F108060CFA06F30E881E40FB
:101D20009E420FD1AF0008FA07F624EA060602FA2F
:101D300007F43443CE78282E00D14361CE78482E64
:101D400000D103616D1C082DE4D34460BDE8F0812F
:101D50004FF6FF710180022181700421C17070472C
:101D600014481549026800608A4203D0134880472E
:101D700013480047134E4FF00900306012480168C5
:101D800021F07061016041020160104C1820206058
:101D90000F49104808601048D0F800D0406800474C
:101DA000FEE7FEE7FEE7FEE7FEE7FEE7FEE7FEE70B
:101DB000FEE7FEE7F04F0020EFBEADDE3115000874
:101DC000ED0000081810024004000140140C01400E
:101DD000000C01404434434400F0FF1F10B501F0F3
:101DE00078F8764800240068847200F0F1F801F079
:101DF00089F97348046010BD704810B50068714AD5
:101E000000218172D2794272C172084601F082F8D3
:101E10004FF40071002001F082F81021002001F041
:101E20008AF84021002001F00FF98021002001F004
:101E300000F9002001F0CDF8634890F82C10002044
:101E400001F02DF9002001F0B4F80021012001F08B
:101E500066F8C021012001F0ECF82021012001F0FA
:101E60006AF80021012001F07DF84FF4C0610220E2
:101E700001F055F84FF48071022001F0DAF80021EA
:101E8000022001F06FF82021022001F054F8002117
:101E9000032001F044F84FF48871032001F0D4F8D6
:101EA0004021032001F0FBF84FF44051032001F0E2
:101EB00059F80021032001F03EF8002001F05CFCFD
:101EC0003F490120086010BD4048807A002802D0B8
:101ED0003B49052008607047394904200860704775
:101EE00039481C380178202901D100210170704740
:101EF000704710B1344818387047304908200968D5
:101F000008820020704710B12F48183870472B49BD
:101F100008200968088200207047284910B50A681F
:101F2000212802D0202808D01BE0107800F07F0084
:101F3000212816D1AFF231010CE01078202300F0F7
:101F40007F0121481C38212901D0037009E0AFF23C
:101F50005D01037029B10020916150828847002003
:101F600010BD022010BD15490968097801F07F01F4
:101F7000212903D1022803D0222801D00220704752
:101F8000002070471049103901F022BA0E49083973
:101F900001F01EBA09490968C978042901D900204D
:101FA0007047094A303202EBC10101F011BA09B998
:101FB000012801D9022070470020704790010020BD
:101FC0000C010020DF87000890000020EC3E00207C
:101FD0000648012101600021054A0160031D1960C6
:101FE0004FF4E0511180016000207047405C0040D8
:101FF0009C01002010B51949032001F08FF8C1B2EF
:10200000164800F0D7FEBDE81040032000F0D1BF15
:10201000704708B5124800218DF8001000680528A7
:102020001AD110480268521C0260062A14D10160BD
:1020300069460D4800F0D9FE9DF80020002A0BD01B
:10204000C021094801F012FD9DF80010012001F0A7
:102050001CF8012000F09DFF08BD0000EC0B0020E3
:102060000C01002010010020EC3D002070B5144D43
:102070002868144C60806088134E318808408005C1
:1020800007D54FF6FF5028602078401C2070FFF7DE
:10209000C0FF608831880840000401D501F042FC8F
:1020A000608831880840400507D54FF6FF3028602A
:1020B00006484068BDE87040004770BDD6E70000A4
:1020C000445C00402E0100209C0100209000002074
:1020D00070B5824CA01DA179072933D2427840887F
:1020E000282A06D03A2A06D03B2A06D0062A1AD039
:1020F00028E0208726E0608724E0A087618F6422A3
:10210000514300EB800001EB4000C0EBC00000EB4E
:1021100040006E21B0FBF1F002F029FD704902F0A1
:102120004CFB20640EE0050B2177C0F30B0002F09E
:102130001EFD6C4902F00BFB6B4902F03EFB04EB09
:10214000850108620020607670BD70B56748008820
:1021500040F380026548521C2430008863492831CE
:10216000098800255D4CB1F5617F02D9256065764F
:1021700025710121C2B341F28832904244D341F625
:102180008A32904240D2226872B3A0F598508838C3
:10219000C21700EB5270627EC0F3C700002A18D14C
:1021A000637963B34D490222891D012B07D0022BAD
:1021B00010D0032B0DD12379132B1DD308E07E28DB
:1021C00007D02379132B03D258542079401C207157
:1021D000627170BD7D2808D07E2809D022795054C4
:1021E0002079401C207170BD0EE003206071FAE779
:1021F000FFF76EFF6571F6E780F02000E4E77E28C8
:10220000F1D125716171EEE7B0F57A6FEBD2216003
:1022100065762571E7E7F0B589B044212F4802F0D3
:1022200032FA01210420FFF743FB06A8FFF790FDD7
:102230004020ADF8180028208DF81B0002258DF8ED
:102240001A5006A92A48FFF731FD1E208DF81C0000
:1022500003208DF81D008DF81E5001268DF81F609B
:1022600007A8FFF7DAF96846FFF749FC4FF6FF7059
:10227000ADF8040047201D4FADF800000024103FCA
:10228000ADF80640ADF8024069463846FFF75EFB00
:10229000ADF80C40ADF81060ADF80E50ADF812403E
:1022A000ADF8144003A93846FFF7F5FB5021384636
:1022B000FFF740FC04213846FFF74BFC80213846ED
:1022C000FFF74FFC01213846FFF722FC01220621CF
:1022D0003846FFF727FC09B0F0BD00002C0C0020A9
:1022E000000020416666864000400345100800401B
:1022F000000C0140FE4881684FF6FE72114081607B
:10230000FC49416140F6A731C160816841F001019B
:102310008160704710B5B0F5CC7F17DAE92915DC7C
:10232000002813DB002911DB01EB011101EB410156
:1023300000EBC101CB1000F007048020ED49E04024
:10234000012A04D032B1CA5C4240CA5410BDCA5CF2
:102350000243FAE7C85C6FF0800222411040C85483
:1023600010BD2DE9F84F07460E4694469A46D41BF9
:1023700001D5C4F10004BAEB060000D54042804606
:102380004FF0FF30674502DA4FF0010B00E0834663
:10239000564500DA01208146C8F10000A4EB08058B
:1023A0000090314638460A9AFFF7B4FF674501D1DD
:1023B00056450BD000996800884202DDA5EB080560
:1023C0005F44A042EDDA25444E44EAE7BDE8F88FC9
:1023D00070B501EB011404EB440400EBC40400F0FD
:1023E0000700C0F10705E4100120A840C5B28E180F
:1023F000C048EA2E09DDC1F1EA0206E0015D0BB139
:10240000294300E0A94301553334521EF6D270BD72
:102410002DE9F04301EB011101EB410100EBC1019A
:10242000C91000F00705DFF8CCC24FF0FF09002DFE
:1024300001DC082A13DA29FA05F0C5F108054C4633
:10244000521B03D552429440204000221CF8014008
:102450000BB1044300E084430CF80140491CD01048
:1024600002F00708002823DD4FF6FC720240002A24
:1024700012DD95100CEB010713B14FF0FF3600E0B1
:102480000026002447F82460641C6D1EFAD100F079
:102490000300114400280BDD0A4604460BB1FF255A
:1024A00000E000250CF80250521C641EFAD10144D1
:1024B000B8F1000F0CDDC8F1080209FA02F01CF8AF
:1024C0000120C0B20BB1024300E082430CF80120AE
:1024D000BDE8F0832DE9F0430646079F8C469946F8
:1024E00042B1144600256042032101EB40000FFA7F
:1024F00080F854E0BDE8F0431A460BE7F80705D032
:10250000ACEB050130194A46FFF704FFB80705D5C3
:10251000ACEB040170194A46FFF7FCFE780705D5BD
:10252000ACEB0401701B4A46FFF7F4FE380705D5F3
:10253000ACEB0501301B4A46FFF7ECFEF80605D56B
:102540000CEB0501301B4A46FFF7E4FEB80605D543
:102550000CEB0401701B4A46FFF7DCFE780605D53C
:102560000CEB040170194A46FFF7D4FE380605D576
:102570000CEB050130194A46FFF7CCFEB8F1000F0D
:1025800005DA08EB8500801D0FFA80F806E0291BAC
:1025900008EB81000A300FFA80F8641E6D1CA5421A
:1025A000ACDD95E7544AC2E904017047F0B5534FDA
:1025B000514D203817F8313007EBC1076A69797837
:1025C0007F68C9085943C91C2E6900FB017002EBE2
:1025D0000212417802EB420206EBC202314402F0E1
:1025E00007042961D2104349C01CF4B10025C4F18D
:1025F000080E10E08E5C0778E7403E438E5410F8DA
:10260000016B06FA0EF68F1897F801C046EA0C0621
:102610007E7033326D1C9D42ECDBF0BD8D5C10F89A
:10262000016B35438D543332641C9C42F6DBF0BDA4
:102630002DE9F04F8BB083460D4614469A4600278D
:102640002C222F496846DDF8508002F003F8002D57
:1026500002DB5946202002E06D4259462D20FFF74B
:10266000A5FF2E46E9461CE059F8241096FBF1F030
:1026700095FBF1F201FB125650EA0A0104D1621EE9
:10268000904501D028B927B159463030FFF78EFF69
:102690000127611E884503D159462E20FFF786FF8A
:1026A000641E002CE0DC0BB0BDE8F08F2DE9F04F8C
:1026B000A1B001214FF4C050FFF7F1F801218803C8
:1026C000FFF7F6F80BA8FFF765F80B480B904FF4EF
:1026D000405A4FF48040CDE914A0002480264FF4E6
:1026E000007BC010CDE911B040F6A7300EA909E07B
:1026F00000000240700C00206C010020140000203B
:102700005888000851C19F489F4D0C900D94139418
:102710002846FEF7B5FF0BA92846FFF71EF816A8B6
:10272000FFF716FBADF8586018208DF85B00032505
:102730008DF85A5016A99548FFF7B8FA4FF400489B
:10274000ADF8588010278DF85B708DF85A5016A997
:102750008F48FFF7ABFA8E491031C1F800804FF473
:102760008078ADF858804FF028098DF85B908DF88F
:102770005A5016A98548FFF799FAADF858808DF898
:102780005B908DF85A5016A98148FFF78FFA17A869
:10279000FFF7BEF8A803ADF85C004FF482707D4DE2
:1027A000ADF85E00ADF86040ADF86440ADF868701B
:1027B000ADF86240ADF866B0ADF86A40ADF86C4077
:1027C00017A92846FFF788F801212846FFF7ACF83B
:1027D0006846FEF7DFFFDFF8B08108F128084046C1
:1027E000FEF74EFF6B4803A90C3000906548CDE919
:1027F0000107332051C1CDE9084A06940794694680
:1028000040460A94FEF7A9FF01214046FEF7CFFF9C
:10281000012202212846FFF791F81CA8FFF76FF963
:102820004FF6FF70ADF874005B4DADF87040ADF839
:102830007640ADF872401CA92846FFF787F8502172
:102840002846FFF777F90022322311462846FFF782
:1028500077F904212846FFF77CF901220221284656
:10286000FFF760F94FF4F0712846FFF782F91B205B
:102870008DF87C008DF87D408DF87E4001208DF82C
:102880007F001FA8FEF7C9FE01212846FFF740F987
:102890000021084601F046FB4049087021B003E7DB
:1028A00070B501F0C9FA3E494A680AB12D2300E02B
:1028B00018233A4C03F1EA0004F10A042260394A71
:1028C000128892075AD5324A083212684FF0000532
:1028D000D405324A02F1020214D41468642C11D9CE
:1028E0008868844200D98C602C4B88689B1DB0F5A9
:1028F000967F186001DD012000E00020486015602F
:102900008D6037E0214C08342468E40532D5146822
:10291000641C14609C4219D3461EB44216D8E31AB4
:1029200003EB031303EB4304164B1C4484F83250AF
:10293000154B083B1D6B4FF6FE7635401D63DC637F
:1029400033245C631C6B44F001041C6312688242F4
:1029500010D1C86890F00100C86005D0FFF7CAFC2C
:10296000084842F69E6102E0064842F69F61405CDC
:1029700001F0DAFB02210848FFF7FDF8BDE87040DE
:1029800001F05DBA700C0020080002400008014010
:10299000000C014000300140002C01400E3B0020A3
:1029A0006C010020102C01407CB5F74C4FF4807076
:1029B000012160601020A060A4F50470E06000F5C3
:1029C00080702061F148A0628803FEF768FF4FF431
:1029D0000070ADF8000002258DF802501820EC4E72
:1029E0008DF8030069463046FFF760F96802ADF8DC
:1029F000000048208DF8030069463046FFF756F97D
:102A000025208DF804008DF8055000208DF8060073
:102A100001208DF8070001A8FEF7FFFD20467CBDD0
:102A20007CB5D94C01214034206040206060A0601A
:102A3000A4F5A070E06040302061D4481430A0625A
:102A4000D2482830E062D348E0634804FEF730FF04
:102A50000420ADF8000002258DF802501820CC4E5D
:102A60008DF8030069463046FFF720F90820ADF8DD
:102A7000000048208DF8030069463046FFF716F93C
:102A800011208DF804008DF8055000208DF8060007
:102A900001208DF8070001A8FEF7BFFD20467CBD90
:102AA0007CB5B94C01218034206040206060A0607A
:102AB000A4F58070E06040302061B748E06388048E
:102AC000FEF7F6FE4FF48060ADF8000002258DF8A9
:102AD00002501820B14E8DF8030069463046FFF7CA
:102AE000E5F8A802ADF8000048208DF8030069461B
:102AF0003046FFF7DBF827208DF804008DF80550ED
:102B000000208DF8060001208DF8070001A8FEF7CF
:102B100084FD20467CBDF0B50F460646A049002442
:102B20009C489D4D8FB08E4204D13846FFF73CFF44
:102B3000044605E0864203D13846FFF771FF04E002
:102B4000AE4203D13846FFF7ABFF04460025E561EE
:102B5000A5616562E6632562ADF834500C20ADF8DE
:102B60003050ADF836000B97ADF83250ADF8385014
:102B70000BA93046FFF716F801213046FFF76AF837
:102B80006846FEF707FE301D00904FF48050CDE9F7
:102B9000090580200495CDE905050795A06AD8B1FF
:102BA0006068CDE9025020200890E0680190A06A9A
:102BB000FEF766FD6946A06AFEF7CFFD0121A06A17
:102BC000FEF7F5FD012240213046FFF765F8A06AC7
:102BD000FEF702FE606105E0012240F22551304619
:102BE000FFF742F8E06AE0B1A06803901020089572
:102BF0000290E06AFEF744FD6946E06AFEF7ADFD2B
:102C000001220221E06AFEF7DDFD0021E06AFEF705
:102C1000E1FDE06A4560012280213046FFF73CF883
:102C200005E0012240F227713046FFF71DF80FB092
:102C30002046F0BD426A01691144C26AD160D0E900
:102C400008218A4204D9511AC26A5160016A04E01B
:102C50008268511AC26A516000214162C06A012132
:102C6000FEF7A5BD816A11B14968406901E01830DD
:102C700003C8814201D0012070470020704710B581
:102C8000C368826A41683AB142698C1A1B5D521E60
:102C9000426109D1416107E0C2699B5C521CB2FBF1
:102CA000F1F401FB1421C161184610BD036A0269E9
:102CB000D154016A8268491CB1FBF2F302FB131183
:102CC0000162C16A19B10968C90706D1B2E7C06BD0
:102CD000012240F22771FEF7C7BF70472A49C86B2F
:102CE000028812060ED5D1E908329A420BD00B6940
:102CF0009A5C8280486A8A68401CB0FBF2F302FB4F
:102D0000130048627047002240F22771FEF7ACBF03
:102D100010B51D4C4FF000704034FEF760FD0021EF
:102D2000E06AFEF744FDD4E90801884203D020465A
:102D3000BDE810407EE710BD134830B48030C26B50
:102D400011888B060CD592888469C3681A558269EC
:102D5000436802F10102B2FBF3F403FB1422826127
:102D600009060FD5D0E9082191421BD00269515CB8
:102D7000C26B9180416A8268491CB1FBF2F302FB8D
:102D80001311416230BC70472C3D002058000240B6
:102D9000000801400044004000480040000C014091
:102DA00000380140C06B30BC002240F22771FEF7B2
:102DB0005BBF00002DE9F041504D80460E4668682B
:102DC000032810D14E4802270760002406E000BF08
:102DD00018F804102868FFF769FF641CB442F7DB99
:102DE0004748001F0760BDE8F0812DE9F047434DDB
:102DF00080460024686802268946032813D1404F84
:102E00002868FFF72FFF38B13E602868FFF737FFCB
:102E100008F80400641CF3E73A4889F800400460AD
:102E20003748001F0660BDE8F08738B5364C0320F0
:102E300020606846FEF78CFFA014ADF8000010205B
:102E40008DF803002E4802258DF80250694614388B
:102E5000FEF72CFF3220FDF72BFA25600520FDF749
:102E600027FA00202060211D0860FEF7C7FC012121
:102E7000C805FEF71DFD38BD08B514208DF800000B
:102E800003208DF8010000208DF8020001208DF84C
:102E900003006846FEF7C1FB08BDF0B500230A2514
:102EA00030274FF0370C1C4610E000BFB5EB107F09
:102EB00002D907EB107601E00CEB107601F81360F5
:102EC00001EB430600015B1C7470DBB29342EDD34F
:102ED000F0BD0E4810B50168001D0468001D0068B3
:102EE00008180AD008220A49FFF7D7FF08492046E8
:102EF0000422BDE810401031CFE710BD800B002048
:102F00001408014084010020405C0040E8F7FF1FE6
:102F100016010020794920F0070008607047774AC1
:102F2000503A02EB8000026848F68F1392B21A40C2
:102F30000A4302607047714A503A02EB80021068FF
:102F400048F6BF7380B200EA0300CB0601D580F0DB
:102F50001000890601D580F0200048F28001084366
:102F600010607047654A503A02EB800210684BF6D9
:102F70008F7380B200EA0300CB0401D580F4805047
:102F8000890401D580F4005048F2800108431060A4
:102F900070475A49503901EB8001086848F6BF7202
:102FA00080B2104080F0300048F280021043086088
:102FB00070475249503901EB800108684BF68F7217
:102FC00080B2104080F4405048F280021043086004
:102FD00070474A49503901EB8001086848F68F6212
:102FE00080B2104048F280021043086070474349A5
:102FF000503901EB80000168490408D5016848F6A2
:103000008F7289B211404CF2800211430160704707
:103010003A49503901EB80000168490608D501683A
:1030200048F68F7289B2114048F2C0021143016024
:103030007047324A21F00101126892B202EBC000DF
:103040002F4A42F8101070472C4A21F001011268F3
:1030500092B202EBC0002A4A02EB40008160704746
:103060002649096889B201EBC000254951F81000D2
:1030700080B270472149096889B201EBC00020493C
:1030800001EB4000806880B270471C4A126892B21F
:1030900002EBC0001A4A02EB400041607047174A39
:1030A000126892B202EBC000154A0C3202EB4002E9
:1030B0003E2909D94809C90601D1401E80B24FF402
:1030C000004141EA802005E04808C90701D0401CC2
:1030D00080B28002106070470849096889B201EB2C
:1030E000C000074901EB4000C068C0F30900704709
:1030F000C1B2000A40EA012070470000505C004065
:10310000006000400E49002008600E494FF4064060
:1031100008800B49091F08600020704770B500F057
:103120007F060D463046FFF7D7FF04463046FFF7CF
:10313000A1FF01462246284600F0A9FC204670BDAA
:10314000445C00409C01002010B5F74C30B1F748BA
:1031500000680068804720680A3010BD216801209F
:103160000882002010BDF04810B50068F04AC17810
:103170005278914203D882780AB982880AB1022033
:1031800010BD8172E948006840688047002010BD8A
:1031900010B5E54C30B1E54800688068804720688C
:1031A0000C3010BD216801200882002010BD10B530
:1031B000DD4CE04A20681268C178926940799047F6
:1031C00021688A7A22B118B9087908B9887808B1D3
:1031D000022010BDD5480068C0688047206841794A
:1031E000C172C1780173002010BDCF4910B50968C4
:1031F00060B1D148002202800A7853060AD002F05A
:103200007F02012A16D0022A16D001E0022008828D
:10321000002010BD497A8A06027802D542F00202E7
:1032200001E002F0FD0249060270D1B210D401F0B3
:10323000FE010FE0C04810BD4A7902F00F011306ED
:10324000BE4A52F8211007D5C1F3011106E00178FA
:1032500041F00101017003E0C1F301310129F6D011
:10326000B248006800698047E4E72DE9F041AE48C4
:103270000168087810F07F0002D0022805D05EE0D7
:10328000487A00F0DF00487247E04888002856D1AD
:103290000879002853D14A79A84C22F080001506FD
:1032A000A34B54F8205003D5C5F301152D0102E0BE
:1032B000C5F301352D031E78034686423FD97DB301
:1032C000897A69B311060ED554F82010C1F30111A3
:1032D00001291ED1D8B20446FFF79AFE30212046BC
:1032E000FFF729FE15E004EB80052968C1F30131E1
:1032F00001290ED14BF68F7648F2800788B1D8B2FB
:10330000FFF775FE286880B2304080F440503843A3
:10331000286086480068406980470020BDE8F08149
:103320000DE0874890F82C100020FFF7B8FE2068C9
:1033300080B2304080F4405038432060E9E70220FA
:10334000ECE770B5784803687C48597921F080052E
:1033500000EB85000C06046821F0800203D5C4F35D
:103360000114240102E0C4F301342403704D2D78CC
:10337000954211D95A887AB974B19A7A62B109061C
:103380000029016848F2800289B207DA48F6BF7363
:10339000194081F0100106E0022070BD4BF68F73DA
:1033A000194081F4805111430160604800688069D0
:1033B0008047002070BD5C4810B50068417A41F03C
:1033C0002001417259480068C0698047002010BD43
:1033D000554A13685A8A10B10868104470478888A3
:1033E000801A1882002070472DE9F05FDFF83891CD
:1033F000DFF850814FF0300AD9F8001001F11005C4
:10340000088A0E7A08B9042E04D0AC88A04217D8D6
:10341000042616E04849891E087860B1474A002012
:1034200050321268484B92B203EB42025060A8F847
:1034300000A0087025E007261021A8F8001020E061
:103440000226844200D90446A0B2A96807468847EC
:1034500083460020FFF704FE01463A46584600F036
:1034600005FB39460020FFF710FE2888001B288046
:10347000688820446880A8F800A034494FF4405080
:103480000880D9F800000672BDE8F09F70B5264D9F
:103490002868017844784A0606D001F07F000128A8
:1034A00028D002282BD035E0092C06D0052C07D0D7
:1034B000032C0ED0012C14D02CE0FFF754FE28E092
:1034C000C1787F292ED8817861BB818851BB807AF1
:1034D00027E0C17801291DD18088D8B9FFF76BFF9B
:1034E00017E0C178012915D1818899B9407A800601
:1034F0000AD40FE00B2C0DD1FFF759FE09E0012C87
:1035000002D0032C03D005E0FFF7AFFE01E0FFF788
:1035100018FFF8B1074800684169E0B288470328FE
:1035200016D0B8B1082021E09001002098010020B9
:10353000E0000020940100208A010020005C00408F
:1035400090000020A0010020006000409E010020AB
:1035500009200BE0DE4A062000211268DD4B92B202
:1035600003EB42025160DC4A302111802968087265
:1035700070BD2DE9F041D94CD94D092620680027AE
:1035800029684278062A05D0AAB1082A4CD00A2A0E
:1035900050D06CE00278520669D18078012804D0BE
:1035A000022804D0032804D061E0C96957E0096A01
:1035B00055E0496A53E04288AABBC288022A56D124
:1035C000027982BB0278530601D1838833B102F0BD
:1035D0007F02012A05D0022A0DD048E0AFF2F53172
:1035E0003DE08A69407900219047E0B92068807AFF
:1035F0000028F3D13BE0417901F00F0001F07002A7
:103600000B06B84951F8201003D5C1F30111090187
:1036100002E0C1F301310903B34B1B78834226D981
:103620000AB90029DAD122E0007840061FD1AFF2B2
:10363000E74114E0027802F07F02012A17D1827A72
:10364000AAB142889AB902798AB9C288012A0ED1F0
:103650008A6940790021904748B9AFF2CB4131B136
:1036600020684782816100208847002006E02968A1
:103670002068096940788847032807D021680A8AAA
:10368000A2F57F43FF3B04D10E7247E62068067225
:1036900044E6022808D03AB1087800061FD5C88849
:1036A000824205D9088213E04FF00800087235E61F
:1036B0000ED228688D4B90F82C00824201D21F70E8
:1036C00006E0B2FBF0F400FB142008B901201870EA
:1036D000286890F82C008882BDE8F04184E6032039
:1036E000087283490003088018E6824810B590F8F4
:1036F0002C100020FFF7D3FC78480068007A0828D7
:1037000002D0092809D006E079494FF4805008809A
:10371000714910200880002010BD012010BD70B537
:103720006B4800686D4D81B26A4800EB41018968C1
:1037300089B200EB41042868017A09290FD0217869
:10374000017061784170A088FFF7D2FC2968488039
:103750002089FFF7CDFC29688880A089C880286867
:1037600001210172C08820B1FFF703FFBDE870405E
:10377000BBE7FFF78BFEF9E7F0B55B49594E48F61A
:103780008F770B78002148F2800C0AE0CCB206EB70
:1037900084052A6892B23A40224342EA0C022A6027
:1037A000491C9942F2D34A4940F08000091F086041
:1037B000F0BD10B5494C2068017A022904D00429D3
:1037C00002D0062905D015E0FFF70EFE2068007A2A
:1037D00011E04178052909D10178490606D1C07860
:1037E000FFF7CAFF44480068006A80473C48006809
:1037F00080688047082021680872BDE8104074E79F
:1038000010B5364C2068007A022811D004280FD059
:10381000032804D0052802D0072805D008E000F0CE
:103820000EF82068007A04E02D480068C0688047E0
:10383000082021680872BDE8104056E770472DE95E
:10384000F047264EDFF890904FF03008346834F897
:10385000100FA168B1B108B3A588854200D905460B
:10386000A8B20746884782462088401B208060888F
:10387000284460800020FFF7FDFB01463A46504691
:1038800000F005F9208848B119494FF440500880EC
:1038900000210846FFF7F9FBA9F800802088A188DD
:1038A000884201D3032001E020B10520316808726D
:1038B000BDE8F087316806200872054900200968D4
:1038C000044A89B202EB41014860A9F80080EFE7A1
:1038D000505C004000600040A001002090010020EA
:1038E00094010020005C0040E000002088010020DE
:1038F0009E01002090000020980100200648054904
:10390000022201600A72064A0449C0E901120868ED
:1039100000470000EC3E00209001002090000020B5
:10392000E40000202DE9F84FDFF82CA14BF6BF761C
:1039300048F28007474D40F68F78474C48F60F7B9A
:10394000DFF818910AF1440A2CE0018811F00F0207
:1039500043490A702FD004EB8200016889B20091BC
:1039600009040CD53E4B016889B201EA08010160E7
:103970003C48197800EB810050F8040C804700980F
:1039800000060FD53648017804EB81010A6892B22F
:1039900002EA0B020A603449007801EB800050F81B
:1039A000040C8047DAF800104846A9F80010090412
:1039B000CBD4BDE8F88F21682980298801F0300137
:1039C0006980298801F440512980216889B23140F9
:1039D00081F4005181F02001394321600088C00644
:1039E0000028206880B216DB00EA0B002060FFF799
:1039F000E0FE23E02988890401D580F4005069881D
:103A0000C90624D46988890601D580F0200080B2D7
:103A100038432060CDE7010507D5206880B200EA71
:103A200008002060FFF77BFE08E00004BAD520689C
:103A300081B201EA08012160FFF7E2FE20682988CF
:103A400080B23040C904D5D580F48050D2E780F0F0
:103A50001000D7E79E010020005C004030010020EC
:103A60008C01002050010020340100200E4B10B5C5
:103A7000521C520803EB410108D003784478801CA3
:103A800043EA042321F8043B521EF6D110BD064B35
:103A9000521C520803EB410104D008C920F8023B34
:103AA000521EFAD170470000006000402DE9F0413D
:103AB00004460D461646FCF739FB384F3878052882
:103AC00004D3FCF731FB0020BDE8F0813348FCF75C
:103AD00017FB7978324B012208441A700521B0FB9C
:103AE000F1F201FB120007EBC0031C715D719E60D7
:103AF000FCF71AFB0120E7E72DE9F041284E0027EB
:103B00007078012802D100F0BDF87770B078234CAE
:103B1000012836D100F05CF9B77032E0FCF706FB03
:103B2000607804EBC001401CD1E9015188460521B1
:103B3000B0FBF1F201FB120060702078401E207093
:103B4000FCF7F2FAE8B2012806D0022809D00328CF
:103B50000DD0042815D10FE0C5F3072000F00EFDAD
:103B60000FE04146C5F3072000F00CFB09E0C5F368
:103B7000072000F0ACFA04E04146C5F3072000F04E
:103B8000CBFC20780028C9D1FCF7D0FA207800B906
:103B90003770BDE8F041FCF7C7BA0000083F0020CD
:103BA000A201002030B500292AD04E4C23680BB169
:103BB0001A4619E0016220601DE0956A2DB1686225
:103BC000936AC0E90923906202E043629862206030
:103BD000426A136A19440162136AA3EB010111627C
:103BE00009E0556A25B12A46156A491BF9D5E4E76B
:103BF000826250620162022141713B4901200870DA
:103C000030BD10B5D0E9092300217BB1DAB15A6289
:103C1000D0E909239362426A046A136A2344136257
:103C2000416281624FF0FF31016210BD2D4B42B104
:103C30001A60136A046A23441362426A9162416201
:103C4000F0E71960EEE75962EBE7284910B509780B
:103C500009B1032010BD411C06D00028FAD0244928
:103C60000A781AB1152010BD022010BD0A78521C26
:103C70000A7001461F480068FFF794FF00F0F3F850
:103C8000002010BD2DE9F041164E3468002C1BD0E9
:103C90004FF0FF370025206A002815D1207AFF2831
:103CA00002D0204600F013FCE06908B100F05FF993
:103CB0002762606A30602046656200F09AFA3468D4
:103CC000002C01D0A562E6E7BDE8F0810848007845
:103CD000012805D908490120087008490870704773
:103CE000D0E70000A8010020B6010020B4010020A8
:103CF000B5010020D4010020A2010020A301002072
:103D000000EB4001474830B400EBC1014A68002A8B
:103D10002BD0454B1878401C1870444C23680BB1CD
:103D2000184618E021601DE045692DB129614369FD
:103D3000C1E90403416102E00B6159612160086936
:103D400043681A444A604168A1EB0201416009E0FE
:103D5000056925B128464568521BF9D5E4E7486155
:103D600001614A6030BC00F07EB830BC70472D4A1B
:103D700000EB400102EBC1012B4A30B413785B1C0D
:103D80001370284C00EB400004EBC0004B69006945
:103D9000002273B1D0B11861D1E90403436108690D
:103DA0004C684368234443600A614A6130BC00F0B8
:103DB0005AB81E4B40B11860426108694C684368AC
:103DC000234443600A61F1E71A60EFE71A61ECE708
:103DD00070B5164D14E0607810B1012810D105E0DF
:103DE0002078FFF7C4FF0120A07007E02078FFF7DC
:103DF000BEFFA06860602078FFF782FFE068804720
:103E00002C68002C02D060680028E4D070BD064801
:103E10000078012805D90649012008700549087075
:103E20007047D5E7343F0020B5010020AC010020E9
:103E3000A2010020A40100203048FCF761B910B5B0
:103E40002E48FCF767F92D4C207800280AD1A0787D
:103E5000012807D16078401C607000F018FA607883
:103E6000401E607010BD10B5244C6078012802D04F
:103E70006078401E0BE022480078012801D1FFF74E
:103E80003BFEA078012801D100F001FA002060700B
:103E900010BD10B54FF0E0201A49416107210161C2
:103EA0001948016841F07F410160001D0168174A0F
:103EB0001143016000F088F900F0A4FA00F050F915
:103EC0000E494878401C4870114B44F240021C4691
:103ED0000021104800F030FA2046BDE81040FCF701
:103EE00027B90E4910B50C4808600D49086001213A
:103EF000417100F0B4F9BDE81040B4E7B40100200E
:103F0000A20100203F1901001CED00E00000FFFFAE
:103F100018440020D501000890410020D401002061
:103F2000D001002070B5894A05461078401C1070F9
:103F3000874800240123826803FA04F6324207D03E
:103F4000641CE4B2202CF7D3FFF78DFFFF2070BD77
:103F5000A3401A4382600268A1400A43026041689C
:103F6000A54029434160FFF77EFF204670BD10B594
:103F7000D0E90042764B00213CB172B16260D0E9D9
:103F800000231A60C068C16110BD1AB11A6142688D
:103F90001160F7E7D9601961F4E7DC6002685160ED
:103FA000F0E770B50546FFF7E2FFEC68206A401CB9
:103FB00002D02046FFF725FE4FF0FF30E061654854
:103FC0000068844202D10120607102E0204600F0C6
:103FD00010F9286870BD10B55E4C5D4B2468E06137
:103FE000C0E9021402741A6900212AB110601A692A
:103FF000C0E90012186110BD01604160D860F9E7A6
:104000002DE9F0438846544985B0097819B1032059
:1040100005B0BDE8F0834D4E317809B11520F7E7C2
:10402000202811D24A498A68012101FA00F422426B
:104030000AD03078401C3070454D2868204205D0A9
:104040006968214088432CE00120E1E741484FF0B6
:104050000009B8F1000F07680DD00222214668461A
:10406000FFF7B9FF41463846FFF79CFDFFF7FBFE1F
:10407000F869D8B10CE08846022221466846FFF76D
:10408000AAFF36490220787181F80080FFF7EBFE25
:10409000C7F81C903078401C30706868044028686D
:1040A000A0432860FFF7DFFE0020B1E70520AFE75F
:1040B0002749202809D201228B688240134204D06C
:1040C000086890430860002070470120704770B571
:1040D0001F4C202809D20125A1688540294204D01F
:1040E0002068284203D0002070BD012070BD174910
:1040F000284320600878401C0870E0680FE0017CCD
:1041000022680029816807D0114207D0FFF749FFD4
:104110006168294203D004E09143F7D00068002889
:10412000EDD1FFF7A0FEDEE7084910B5097849B1E7
:10413000014600220320FFF7B9FC08B1002010BDA2
:10414000122010BDBDE81040C1E70000B5010020FD
:10415000B4400020D4010020B4010020B6010020AA
:104160000648074900F1C802C1E90002091F0860BA
:10417000002101604160816070470000C84000205C
:10418000BC01002010B5142807D20D4A02EB001024
:104190004279C2F30302022A01D0012010BDC28875
:1041A0000AB1072010BD074B1A78521C1A70016023
:1041B0000121C18000F043F9FFF755FE002010BD3A
:1041C0001C440020B50100208748002100F12C028A
:1041D0000323817143714262491C2C302C32C9B2D5
:1041E0000829F6D381710021416280497E48086028
:1041F0007047F0B57D4F047900214171F9680A7963
:10420000A24210D181420ED069B1794AD7E9046542
:10421000D2E90032F61A954105D24D89EB1842F1E8
:104220000001C7E90431734B7968012239B10D7976
:10423000A54206D91A70416288627860F0BD1A7092
:10424000FBE74A6A22B11379A34201D81146F8E785
:10425000426248628162002AF0D09062F0BD10B5DF
:10426000D0E90923614C002142B163B13AB15A62ED
:10427000D0E9092393624162816210BD0BB159629A
:10428000FAE7616010BD62604162916210BD2DE984
:10429000F041564C6568E668002D4BD0A068864218
:1042A00048D155480078012844D85448007800285F
:1042B00040D1504908707279307929790127DFF8A7
:1042C00030C1012A05D0A5606F712846FFF7C7FFEE
:1042D00013E0814209D388422CD1D4E90401DCE9FE
:1042E000002350405940084324D13046A560FFF7D1
:1042F00080FF2846FFF7B3FF6F71A06862680179FD
:104300001279914207D14189DCE90023891843F1F0
:104310000000C4E904103168F068814203D30068EA
:104320003749884202D0B079FBF774FFBDE8F0410D
:10433000FBF702BFBDE8F0812DE9F05F1546984616
:10434000C2F30B27D6B278B31A46B8F1000F2ED0BD
:10435000402E2CD8142F2AD300F034F9DFF898A07F
:1043600081469AF80010491C8AF800101F484FF047
:10437000000B0468CCB1616A0160FFF774FDC4F8FA
:104380000090A8EB87002671001D1D49E0600160C8
:104390004FF0FF302062C4F824B05846C5F30A51EC
:1043A000C4F828B031B106E001E0FFF75CFDFF2062
:1043B000BDE8F09F0A216181FF21E0612172206147
:1043C0006061A061E171002D0ADB9AF80010491CC0
:1043D0008AF800102046FFF70CFFFFF744FD01E0CC
:1043E00002206071A079E3E790410020C80100201D
:1043F000E8010020B6010020B5010020B401002032
:10440000A5A55A5A4148002100F11002026001712D
:104410004379491C23F00F031B1D437110301032E8
:10442000C9B21329F2D3427922F00F02121D427150
:10443000002202600171364934480860704770B547
:10444000C4680546002C3CD060690026E86000B1D5
:104450008661FF2066612072206A401C02D02046DF
:10446000FFF7CFFB6879C0F30300022804D00328CC
:1044700009D0012819D01EE0286820612E60E88844
:10448000401EE88017E02868C288016851F82210B1
:104490002161C188491C89B2C1808289521E8281F2
:1044A0004289914207D1C68005E0E888401EE88035
:1044B0004FF0FF30206117480068844202D101208C
:1044C000607170BD2046BDE87040FFF792BE10B528
:1044D000017A0E4A02EB0114D0E90532002153B1F2
:1044E0007AB14BB15361D0E9052393618161416198
:1044F000FF21017210BD12B151618161F8E7E160E5
:10450000F6E799614269E260F1E700001C4400208F
:10451000E0010020D401002010B5142807D2154A6C
:1045200002EB00104279C2F30302032A01D00120FA
:1045300010BD026893895489A34201D1082010BD9F
:104540000D4C23785B1C23701489136843F82410E6
:104550001189491C89B2118193895B1C938153890C
:10456000994201D100211181FFF769FFFFF77BFC20
:10457000002010BD1C440020B501002010B51428F7
:1045800007D20E4901EB00104179C1F30301012963
:1045900001D0012010BDC1880289914201D10620BD
:1045A00010BD074B1A78521C1A70491CC180FFF7C6
:1045B00046FFFFF758FC002010BD00001C440020FF
:1045C000B50100204FF080731360131F6FF00102DC
:1045D0001860181F026040F8141C343870471649E0
:1045E00010B50878401C08701448D0E90012491C26
:1045F00042F10002C0E9001211480024006840B1F5
:10460000016A012902D9491E016202E00462FFF732
:104610005DFB0C48006840B14168012902D9491E80
:10462000416002E04460FFF7F2FB07490120087097
:10463000BDE81040FFF717BCB5010020E8010020DD
:10464000A8010020AC010020B601002000487047FE
:10465000488A000840EA01039B0703D009E008C923
:10466000121F08C0042AFAD203E011F8013B00F837
:10467000013B521EF9D27047D2B201E000F8012B83
:10468000491EFBD270470022F6E710B504460846E3
:10469000114602462046FFF7EFFF204610BDF0B45A
:1046A00080EA0102D20F4300B3EB410F02D203466E
:1046B000084619464B0042D0C30DDDB2C1F3C754C2
:1046C0002C1B202C35DAC1F3160141F4000502B190
:1046D0006D42C4F1200605FA06F125412844B3EBEA
:1046E000D05F23D0C2B1012CA0EBC35009DCF0BCD9
:1046F0004FF0004202EAC35200F50000DBB200F0C6
:10470000ABBA400000F1807000EBC350A0F18070A4
:1047100040EAD170490009E0490841EAC071A0EBC4
:10472000C35000F50000400800EBC350F0BC00F09F
:104730008ABA5142012303EB4101801AF6E7F0BC2B
:10474000704781F00041AAE780F00040A7E780EAC7
:10475000010210B502F00042400026D04B0023D0E9
:104760004FEA106101EB1361C0F35600C3F3560327
:1047700040F4000043F40003A0FB0330A1F17F01EB
:104780004FEA00401C0401D000F1010050EA134040
:1047900001D44000491EC3B20C0604EBD010401CEB
:1047A0004008802B02D003E0002010BD20F0010063
:1047B000002900DA0020104310BD80EA010202F057
:1047C000004330B430F0004221F0004015D0A0B1D9
:1047D000C0F3C755C2F3C754C2F31601C0F31600A5
:1047E000651B41F4000140F400007D35814201D396
:1047F0006D1C00E04900002D02DA30BC002070473B
:104800004FF400020024814201D3091A14435208D4
:104810004FEA4101F7D151B1814202D14FF000413D
:1048200005E002D24FF0010101E06FF0010104EB5D
:10483000C55030BC184400F006BA420005D0C0F3A1
:10484000C7525242914201DC0020704700EBC15038
:1048500070472DE9FE4F074681EA0300C00F0E4660
:10486000019021F0004123F00044B81AA14105D283
:104870003846314617461E460B46024623F0004096
:10488000104304D13846314603B0BDE8F08F350DF2
:10489000C5F30A00C3F30A510290401A0090402861
:1048A00068DAC3F3130040F4801B0198924620B1EC
:1048B0000023D2EB030A63EB0B0B00985946C0F1BF
:1048C0004002504600F09EF980460C46504659463C
:1048D000009A00F0A6F9C0197141EF1785EA11534B
:1048E0003B4340D0019A52B3009A012A11DC0022C6
:1048F000801A4FF0004361EB055103EA055380181D
:10490000CDE9002341F580114246234600F02BFA01
:10491000BAE72E050025401B61EB0601401941F561
:104920008012001852412818A6F5001343EB02012B
:1049300040EAD470294318EB0808644113E0640886
:104940004FEA38084FF0000244EAC0744FEA0553BA
:10495000801A61EB0301801841F5801149084FEA84
:104960003000801859414246234603B0BDE8F04F5D
:1049700000F0ECB90198012240000023D0EB0202C4
:1049800063EBE07301984FEAE074381A66EB0401B8
:10499000EBE783F000435CE781F0004159E72DE944
:1049A000FE4F81EA030421F0004504F0004423F0A7
:1049B00000414FF0000A009450EA050302D052EA89
:1049C000010304D10020014603B0BDE8F08FC1F31C
:1049D0000A53C5F30A541C44A0FB02B3C5F31305E4
:1049E00045F4801CC1F3130141F480180CFB023321
:1049F00000FB083EA4F2F334810A930A41EA8C5189
:104A000043EA88530194A1FB03474FEA9C2505FB29
:104A100003734FEA982601FB06373D05260545EA54
:104A20001435BBEB06016EEB0503850E920E45EACD
:104A30008C1542EA8812A5FB0206261E67EB0007CA
:104A40000C0D44EA0334A41947EB1350C1F31306C9
:104A50004FF0000319464FEA033343EA165343EA83
:104A60000403019CE5FB0201A4F10C040294009CE8
:104A70004FEA0632CDE900A400F075F9A4E72DE96C
:104A8000F04D81EA030404F0004B21F00047144686
:104A90004FF0000A23F0004150EA070220D054EA08
:104AA00001021DD0C1F30A550246C1F31300C7F33A
:104AB0000A56C7F3130340F4801143F48013A6EBA6
:104AC0000508101BD64608F2FD3873EB010002D32F
:104AD00008F1010801E092185B41B8F1000F03DA18
:104AE00000200146BDE8F08D00204FF480150646F9
:104AF00007460EE0B2EB040C73EB010C04D3121B5F
:104B0000064363EB01032F436D084FEA3000921810
:104B10005B4150EA050CEDD152EA030012D082EA63
:104B2000040083EA0105284303D100224FF000432B
:104B300008E0101B8B4102D20122002302E06FF03B
:104B4000010253101AEB060047EB085110EB0A0064
:104B500041EB0B01BDE8F04D00F0F8B8C10F80EA61
:104B6000E0700844CA079623002100F075B8962328
:104B70000022114600F070B80EB5C10F80EAE07057
:104B80000844CA07002140F233438DE80E000A466C
:104B90000B4600F0E8F803B000BD00F0004220F042
:104BA0000040C10DC0F3160040F400007F2901DA77
:104BB00000207047962903DCC1F19601C84001E04E
:104BC00096398840002AF4D04042704701F00042F4
:104BD00030B421F0004150EA010306D00B0DA3F5DB
:104BE0006073C1F31301002B02DC30BC002070475E
:104BF000440F44EAC104C100A01830BC00EBC3500C
:104C000000F021B8202A04DB203A00FA02F100204B
:104C100070479140C2F1200320FA03F319439040FA
:104C20007047202A06DBCB17203A41FA02F043EA0C
:104C3000E071704741FA02F3D040C2F12002914086
:104C40000843194670470029A8BF7047401C490017
:104C500008BF20F00100704710B4B0FA80FC00FAE1
:104C60000CF050EA010404BF10BC704749B1CCF10C
:104C7000200421FA04F411FA0CF118BF0121214398
:104C80000843A3EB0C01CB1D0106000A002BBEBF9D
:104C9000002010BC704700EBC35010440029A4BF93
:104CA00010BC7047401C490008BF20F0010010BC38
:104CB0007047F0B4002802DCF0BC00207047C0F35D
:104CC000C751C0F3160040F40000CA0701D14000EC
:104CD000491E3F2202EB6105002211464FF40006F7
:104CE00026FA01F31344D418844201D8001B1A4653
:104CF0004000491C1729F3DD5100814202D24FF0D8
:104D0000FF3100E0002102EBC550F0BCFFF79BBF74
:104D100010B541000CD0C0F3C751962908DC7E299C
:104D200009DC06DB410204D000F0004040F07E5078
:104D300010BD002010BDC1F19604C4F1200100FA9D
:104D400001F1E040FFF77FFFA04010BD10B5002B40
:104D500008DA401C41F1000192185B411A4301D16D
:104D600020F0010010BD2DE9F04D92469B4611B197
:104D7000B1FA81F202E0B0FA80F220329046FFF7F9
:104D800041FF06460F4640EA0A0041EA0B0152463F
:104D90005B46084303D130463946BDE8F08D1946DD
:104DA00052EA010015D0C8F14002504600F086F8E2
:104DB00004460D46504659464246FFF723FF084336
:104DC00001D0012000E00020044345EAE0752643BD
:104DD0002F430A984FEAD625A0EB08000A304FEA85
:104DE00046534FF0000245EA47554FEAD72402D513
:104DF00000200146D1E7010550196141DDE9084570
:104E000000196941BDE8F04DA0E710B500F000447D
:104E100020F00040C20DC0F3160040F400007F2ACD
:104E200007DA7D2A00DA7D22763A00FA02F10020C4
:104E300008E0962A09DCA2F1760100FA01F1C2F13C
:104E40009602D040FFF7FFFE01E0963A9040002C1A
:104E500000D0404210BD00F0004230F000400DD0C4
:104E6000C10D01F5607142EA01510022C0F3160044
:104E7000520742EAD0024007114370470020014622
:104E800070470000002801DBC0F10040002901DB71
:104E9000C1F1004181427047064C074D06E0E068D1
:104EA00040F0010394E8070098471034AC42F6D371
:104EB000FBF720F96C8A00088C8A0008202A04DBA2
:104EC000203A21FA02F00021704721FA02F3D04083
:104ED000C2F12002914008431946704770B501EBBA
:104EE000020410F8015B15F0070301D110F8013B33
:104EF0002A1106D110F8012B03E010F8016B01F81C
:104F0000016B5B1EF9D12B0705D40023521E0FD471
:104F100001F8013BFAE710F8013B02F10202A1EBB4
:104F2000030303E013F8015B01F8015B521EF9D59E
:104F3000A142D6D3002070BD4100080218BF042052
:104F40000A0E18BF40F001004FF07F4232EA010123
:104F500008BF40F00200012808BF052070476FF02D
:104F60005E010807FFF769BC2DE9F04D03461446C2
:104F70004FF07F400E46B0EB440F04D80016086097
:104F80001846BDE8F08D4FF0004040EA0421C4F31C
:104F9000C7507838431100F01F00DFF814C1C0F18A
:104FA0002002FC445CF823500CEB83038540D3F8CB
:104FB00004C02CFA02F72F439D680CFA00FC25FA76
:104FC00002F8DB6805FA00F023FA02F240EA020573
:104FD0004CEA080CA7FB0123ACFB01C0A5FB015167
:104FE00001EB0C05A94294BF4FF0000C4FF0010CEF
:104FF00081186144BCF1000F02D0814202D903E064
:10500000814201D2012000E00020184400F120027A
:105010004FEA92188006CA0C40EA42304F03C6F8A5
:105020000080FFF79BFD82463846FFF7A0FD6FF03A
:105030001201FFF702FC07462846FFF798FD6FF0C4
:105040002501FFF7FAFB834639465046FFF727FB59
:105050005946FFF724FB00F500656FF30B05514639
:105060002846FFF76EFB3946FFF76BFB5946FFF703
:105070006BFB1049FFF76BFB07460F492846FFF70C
:1050800066FB3946FFF70BFB07460C492846FFF73E
:105090005EFB3946FFF703FB14F0004F08BFBDE885
:1050A000F08DC8F1805180F000403160BDE8F08D96
:1050B000A63A0000DB0FC92F22AAFD290000C92F44
:1050C00002E008C8121F08C1002AFAD170477047D1
:1050D000002001E001C1121F002AFBD1704700002F
:1050E0000149086070470000F00100202DE9F047F9
:1050F0004FF0684202EB400305460C46B3F1654FA2
:105100003CBF02EB4102B2F1654F3FD34FF07F420B
:10511000B2EB400F28BFB2EB410F03D2BDE8F0471E
:10512000FFF7BDBA40EA01035B0008BF44F0FF414E
:105130000AD0B2EB400F08BFB2EB410F06D125F009
:10514000804024F0804105460C461FE0B2EB400F42
:1051500012BF5FEA410245F0FF4004F0004115D064
:105160004FEA410292EA400310D4002AACBF4FF04C
:105170009F464FF03E563146FFF7E9FA0546314665
:105180002046FFF7E4FA044628462146C0F3C752FA
:10519000C1F3C753D21A1B2A06DD10F0004F14BF0B
:1051A00054485548BDE8F08712F11A0F17DA11F08C
:1051B000004F06D010F0004F14BF50485048BDE8D3
:1051C000F08721462846FFF7F8FA0446FFF7B4FEB9
:1051D000042808BFFFF7C3FE2046BDE8F087420061
:1051E000B2EB410F25D910F0004F19BF454F464E85
:1051F000464F474E224685F0004415460A4680F049
:10520000004110460A1A5200B2F1807F3ED2484057
:105210004049DFF804A110F0004F18D04FF03F488C
:105220003846FFF78EFA074651463046FFF789FAAF
:1052300017E011F0004F04BF00263746E2D010F00F
:10524000004F19BF354F364E364F374EDAE74FF025
:105250007C583846FFF723FA074651463046FFF799
:105260001EFA064641462846FFF771FA2146FFF727
:1052700016FA824621464046FFF769FA2946FFF7AB
:1052800063FA5146FFF799FA044604E0214628469E
:10529000FFF793FA04460146FFF759FA804623497F
:1052A000FFF755FA2249FFF7FAF94146FFF74FFA9F
:1052B0002049FFF7F4F94146FFF749FA1E49FFF785
:1052C000EEF94146FFF743FA1C49FFF7E8F90546B6
:1052D00041462046FFF73BFA2946FFF738FA3146A8
:1052E000FFF7DDF92146FFF7DAF93946BDE8F04767
:1052F000FFF7D5B9DB0FC9BFDB0FC93FDB0F49C0D3
:10530000DB0F49400000C9BF22AAFDB90000C93F18
:1053100022AAFD390060ED3EC30ACE37000049C025
:1053200022AA7DBA0000494022AA7D3A2DAD65BD72
:105330008FB8D53D0FB511BE61C84C3EA8AAAABE14
:105340002DE9F8430446024650486946B0EB420F47
:1053500009D94FF0E640B0EB420F8CBF4FF0FF3061
:105360000020009034E04A4B22F0004083422BD9C9
:1053700048492046FFF7EBF9FFF7CAFC0546FFF75F
:105380000CFC00F00300009043492846FFF7DFF9CA
:10539000064642492846FFF7DAF9074640492846BB
:1053A000FFF7D5F980463F492846FFF7D0F9214657
:1053B000FFF7CAF94146FFF7C4F93946FFF7C1F9CB
:1053C0003146FFF7BEF902E01046FFF7CDFD044677
:1053D000009D002D18DA6000B0F17F4F3CBF4FF008
:1053E0007E50BDE8F88309D14FF00100FFF778FE49
:1053F000BDE8F84300210846FFF7DFB92046BDE8C5
:10540000F8430121FFF719BA214615F0010F0846AC
:105410001DD0FFF79CF906462349FFF798F9234969
:10542000FFF792F93146FFF792F92149FFF737F973
:105430003146FFF78CF92146FFF789F92146FFF73E
:105440002EF915F0020F18BFBDE8F8831AE0FFF738
:105450007EF904461749FFF77AF91749FFF71FF954
:105460002146FFF774F91549FFF719F92146FFF7AF
:105470006EF94FF07E51FFF712F915F0020F08BFD9
:10548000BDE8F88380F00040BDE8F883B61F927E47
:10549000490E494683F9223F1A61342C0020A23379
:1054A00000A0FD390000C93F336D4C39DA82083C59
:1054B000A0AA2ABEB93AB2BACA9F2A3DDDFFFFBEF2
:1054C0002DE9F04D0F46A0F50001804604464FF04F
:1054D00000703E4684B04FF07E554FF0000B00EB5D
:1054E00046004FF07F4AB1F1FE4F04D2B0F1804F39
:1054F00080F0FA8041E0B0F1804F3ED304F1FF40EC
:10550000B0F1FE4F1FD200BF28F00048C6F3C750CD
:1055100044467F2809DB97287BDAC0F196000121F9
:1055200001FA00F0411E314209D00120FFF7D8FDF9
:1055300004B00021BDE8F04D0846FFF73EB9304207
:1055400018BFFE4DD0E0600000281CBF4FF08070F7
:10555000B0EB440F0BD91B214046FFF76EF9804694
:1055600004466FF01A0B10F0004FCDD1BCE0A4F54B
:105570000000B0F1FE4F4CD319E0B0F1007F10D322
:1055800000213046FFF77EFC05D16000B6D0BAEBB3
:10559000440FB3D9A5E006F0004040F0FC56374672
:1055A000ACE7B0F1807F38BFA6F50007A6D324F0A2
:1055B00000416FF0FF40E24B0A189A420FD326F0E9
:1055C0000042104483420AD8B4F17E5F7DD070005F
:1055D0007BD0B1F1FF4F02D8B2F1FF4F06D904B032
:1055E00039464046BDE8F04DFFF759B8B4F1FF4FDA
:1055F00010D0C6F3C7507F2809DB972812DAC0F114
:105600009600012101FA00F0411E314206D000202F
:1056100009E069E016F0004F5ED127E0304218BF84
:10562000012000D1022014F5000F13D01CB3B4F1F7
:10563000004F26D014F1814F53D04FF0FE40B0EB15
:10564000440F94BF01200020012101EBE671884244
:1056500042D10BE016F0004F02D001283ED03BE0D3
:10566000012802BFB74804B0BDE8F08D4FF0FF40FD
:1056700004B0BDE8F08D16F000400ED104B0BDE8D6
:10568000F08DB6F1FF4F27D016F5000F05D016F0BC
:10569000004F18D008B101280AD00220FFF720FDE2
:1056A00004B00021BDE8F04D4FF07E50FFF785B803
:1056B0000220FFF715FD04B04146BDE8F04D4FF064
:1056C0007E50FFF77AB8002800E00AE004BF04B07B
:1056D000BDE8F08D012801D00020CFE74FF0004059
:1056E000CCE74FF07E50C9E797482044B0F5005F03
:1056F00044D84046FFF7AFFB0022944BFFF749F92F
:10570000FFF764FA04466FF00101FFF796F890493D
:10571000FFF71AF82146FFF71AF84FF07C51FFF710
:1057200013F8064621460846FFF711F880F00040BE
:105730003146FFF70CF8804686492046FFF707F808
:10574000064685494046FFF702F8804683492046D1
:10575000FEF7FDFF4146FEF7A2FF04460146304634
:10576000FEF79DFF00F5006B6FF30B0B59463046BB
:10577000FEF7E7FF2146FEF792FFD4E004F5802014
:10578000C00C00F00F06C0F307107F38A4EBC05424
:1057900083443046FFF7E2F96FF00301FFF74DF85D
:1057A0004FF07E51FEF77BFF014602902046FEF748
:1057B000C8FF009020460299FEF771FF00F50068CF
:1057C0006FF30B08019041460298FEF7BAFF21469D
:1057D000FEF765FF02904FF07E500199FEF7EDFF56
:1057E000014601900098FEF7B2FF00F500646FF3E8
:1057F0000B0420460299FEF7AAFF0290414620467C
:10580000FEF7A5FF0099FEF79FFF0299FEF799FFAB
:105810000199FEF79CFF804601462046FEF73FFFB8
:105820000146FEF794FF4E490090FEF790FF48496D
:10583000FEF735FF0099FEF78AFF01900021204610
:10584000FEF7FBFF009041462046FEF728FF019936
:10585000FEF77DFF044600214046FEF7EEFF21469D
:10586000FEF71DFF804601460098FEF718FF00F581
:1058700000646FF30B0421460098FEF762FF414677
:10588000FEF70DFF804637492046FEF760FF009087
:1058900035494046FEF75BFF804634492046FEF717
:1058A00056FF4146FEF7FBFE804601460098FEF794
:1058B000F6FE00F500646FF30B0421460098FEF736
:1058C00040FF4146FEF7EBFE80462948784450F8F9
:1058D000361000EBC600009146684FEA0B10FFF748
:1058E0003DF9019031464046FEF7D9FE2146FEF7CC
:1058F000D6FE0099FEF7D3FE0199FEF7D0FE00F523
:10590000006B6FF30B0B58460199FEF71AFF0099D5
:10591000FEF717FF2146FEF714FF3146FEF711FF91
:105920004146FEF711FF07F5006480466FF30B0454
:1059300021463846FEF705FF07461BE0000080BF02
:10594000FFFF3F00000080FF001080C00000F03F1C
:10595000ABAAAA3E00B0B8413BAAB841D49A38BB22
:105960007EE24C3E00B038423BAA3842D49AB8BBE3
:10597000B42F000021465846FEF7E9FE0646394698
:105980002046FEF78CFE4146FEF7E1FE044639460E
:105990005846FEF7DCFE2146FEF781FE074601462B
:1059A0003046FEF77CFE00F500646FF30B042146E1
:1059B0003046FEF7C6FE3946FEF771FE80460146C8
:1059C0002046FEF76CFEFFF720FA07460611FFF7A8
:1059D000C5F82146FEF7B8FE4146FEF760FE0446D4
:1059E0003149FEF7B4FE3149FEF759FE2146FEF774
:1059F000AEFE2F49FEF753FE2146FEF7A8FE0146F4
:105A00002C4807F00F04784450F82400FEF79FFE5E
:105A10002949794451F82410FEF741FE2749794479
:105A200051F82410FEF73BFE06F17D01FC2908D257
:105A30003146FEF702FF04B02946BDE8F04DFEF7FF
:105A400086BE06F1BF01B1F5BF7F14D83146FEF71F
:105A5000F4FE2946FEF77BFE0446BAEB440F16D04F
:105A600060000AD02046FFF767FA042808BFFFF756
:105A700076FA204602E6002E09DA0220FFF730FB14
:105A8000FFF76DFA0146284661F31E00F6E5022095
:105A9000FFF726FB61214FF0E040FEF7CEFE014606
:105AA000284661F31E00E9E5FC596337C9FF753AE2
:105AB0001872313D7A2F00002E2F0000E22E0000D8
:105AC0002DE9F8430446544822466946B0EB420F9C
:105AD00009D94FF0E640B0EB440F8CBF4FF0FF30D8
